:04000000AFEF0BF063
:10100000000618C617B81774113812FC176A134077
:1010100018381830182818201818181018F21760E7
:101020001400D5EC0BF00E0E3D6ECD0E3E6E740E20
:101030003F6E650E406E730E416E740E426E0E0E64
:10104000376ECD0E386E500E6FEC09F0E806D8B44E
:101050002CEF08F02EEF08F023EF08F03D0E266E7F
:10106000000E276E000E296E060E286E74EC0BF033
:10107000000E93EC0AF04BEC0BF0E806D8B443EF0B
:1010800008F045EF08F03BEF08F01A0E366E5E0EE2
:10109000356E6E0EE82EFED7352EFCD7362EFAD7DB
:1010A00000D0500E6FEC09F0E806D8B45AEF08F003
:1010B0005CEF08F051EF08F03D0E266E000E276E33
:1010C000000E296E020E286E74EC0BF0000E93ECED
:1010D0000AF0370E266E000E276E000E296E040EE3
:1010E000286E74EC0BF0010E93EC0AF04BEC0BF055
:1010F000E806D8B47EEF08F080EF08F076EF08F04D
:10110000210E356E760EE82EFED7352EFCD700D098
:10111000280E6FEC09F0E806D8B491EF08F093EFD1
:1011200008F088EF08F0370E266E000E276E000ECE
:10113000296E040E286E74EC0BF0000E93EC0AF08E
:101140004BEC0BF0E806D8B4A8EF08F0AAEF08F0D3
:10115000A0EF08F01A0E366E5E0E356E6E0EE82E9B
:10116000FED7352EFCD7362EFAD700D023EF08F065
:1011700000EF00F0BAEC0BF00009D8B4C2EF08F0B1
:10118000C4EF08F001EF09F0D2EF08F020EC0CF00A
:101190001BEF09F01CEC0CF01BEF09F014EC0CF049
:1011A0001BEF09F013C02FF014C030F020EE07F051
:1011B00002D8E5EF08F00500FA6EDE50FD6EDE5055
:1011C000FE6EF850FF6EFA501200316E326A3250E5
:1011D000000AD8B4EEEF08F0CEEF08F03150010A63
:1011E000D8B4CEEF08F0030AD8B4C6EF08F0010A6D
:1011F000D8B4CAEF08F0070AD8B4CEEF08F0CEEFA3
:1012000008F024901EC0D9FF1FC0DAFF1E4A1F2A13
:10121000DF5024EC0CF02006D8A02106205021102D
:10122000D8A415EF09F017EF09F01AEF09F0060E30
:101230001BEF09F0030E120030EC0CF01EC0D9FFBA
:101240001FC0DAFFDF6E1E4A1F2A2006D8A0210623
:1012500020502110D8B42FEF09F031EF09F036EF0C
:1012600009F028EC0CF0050E6EEF09F0248641EF32
:1012700009F008EC0CF06EEF09F00CEC0CF06EEFDE
:1012800009F00DC02FF00EC030F002D852EF09F077
:101290000500FA6E0150FD6E0250FE6EF850FF6EB2
:1012A000FA501200316E326A3250000AD8B45BEF45
:1012B00009F03DEF09F03150010AD8B43DEF09F0D3
:1012C000030AD8B439EF09F0010AD8B439EF09F0AC
:1012D000070AD8B43DEF09F03DEF09F01200266E81
:1012E000010E276E24B477EF09F079EF09F0B3EF20
:1012F00009F026C01DF02492248424900E0E226E44
:10130000010E1C6EF40E1B6E24866C0E016E180E00
:10131000026E000E0D6E000E0E6E6C0E036E180E39
:10132000046E000E0F6E000E106E6C0E056E180E21
:10133000066E000E116E000E126E6C0E076E180E09
:10134000086E000E136E000E146E680E096E180EF5
:101350000A6E000E156E000E166E42EC0CF085EC57
:101360000BF0000E276E275012002486C5EF09F0FF
:1013700018EC0CF0F2EF09F02EEC0CF0030EF2EF8B
:1013800009F014EC0CF0F2EF09F00DC02FF00EC0D4
:1013900030F002D8D6EF09F00500FA6E0150FD6E6C
:1013A0000250FE6EF850FF6EFA501200316E326A33
:1013B0003250000AD8B4DFEF09F0C1EF09F0315024
:1013C000010AD8B4C1EF09F0030AD8B4B8EF09F0A4
:1013D000010AD8B4B8EF09F0070AD8B4BCEF09F095
:1013E000C1EF09F012002A6E26502710D8B4FBEF87
:1013F00009F0FDEF09F017EF0AF02A50020D010E77
:10140000F324D96E000EF420DA6E26C0DEFF27C06A
:10141000DDFF2A50020D0D0EF324D96E000EF420CC
:10142000DA6E28C0DEFF29C0DDFF2FEF0AF02A5058
:10143000020D010EF324D96E000EF420DA6E6C0E4C
:10144000DE6E180EDD6E2A50020D0D0EF324D96EDD
:10145000000EF420DA6E000EDE6E000EDD6E12005D
:101460002490020E236E3DEF0AF018EC0CF064EFAE
:101470000AF014EC0CF064EF0AF011C02FF012C067
:1014800030F020EE05F002D850EF0AF00500FA6EB9
:10149000DE50FD6EDE50FE6EF850FF6EFA50120008
:1014A000316E326A3250000AD8B459EF0AF039EF7F
:1014B0000AF03150020AD8B435EF0AF0010AD8B464
:1014C00035EF0AF039EF0AF0120042EC0CF024A0DC
:1014D0006CEF0AF06EEF0AF07AEF0AF0BAEC0BF05C
:1014E0000009D8B476EF0AF078EF0AF07AEF0AF044
:1014F0000F0E226E2250020D010EF324F66E100E16
:10150000F420F76E02D891EF0AF00500FA6E090098
:10151000F550FD6E0900F550FE6EF850FF6EFA5062
:101520001200226E1200336E010E346E24B29BEF55
:101530000AF09DEF0AF0B2EF0AF02482000E346E3A
:101540003350D8B4A6EF0AF0A8EF0AF0ACEF0AF0D7
:10155000010E226EAEEF0AF0020E226E3CEC0CF091
:1015600095EC0BF03450120020EE02F02F50D926EB
:101570003050DA22DECF26F0DDCF27F02FC0D9FFA2
:1015800030C0DAFFDECF28F0DDCF29F074EC0BF0AD
:10159000000E2B6E000E2C6E000E2D6E000E2E6EA9
:1015A000A3EC0BF0020E1200080EA76E900EAB6EAD
:1015B000240EAC6E080EAF6E020E7D6E000E266E0F
:1015C000000E276EEFEC0BF0000E266E000E276E5D
:1015D000EAEC0BF0000E266E000E276EF4EC0BF01A
:1015E000000E256E12002FC026F030C027F0000E2E
:1015F000296E010E286E74EC0BF0000E2B6E000E9F
:101600002C6E000E2D6E000E2E6EA3EC0BF0040E51
:1016100012002FC026F030C027F0000E296E020EF7
:10162000286E74EC0BF0000E2B6E000E2C6E000E6C
:101630002D6E000E2E6EA3EC0BF0020E12002FC0CA
:1016400026F030C027F0000E296E010E286E74ECD3
:101650000BF0000E2B6E000E2C6E000E2D6E000E89
:101660002E6EA3EC0BF0020E12002FC026F030C03D
:1016700027F0000E296E020E286E74EC0BF0000E9F
:101680002B6E000E2C6E000E2D6E000E2E6EA3EC37
:101690000BF0040E1200010E266E24B252EF0BF076
:1016A00054EF0BF05EEF0BF024941D6842EC0CF04D
:1016B0003EEC0CF040EC0CF023C026F0265012005B
:1016C000000E896E000E8A6E000E8B6ECF0E926E2B
:1016D0009368BF0E946E1F0E0F015D6F070E5C6F57
:1016E000000E5B6FF18E120024A679EF0BF07BEFFA
:1016F0000BF084EF0BF026C01EF027C01FF028C0AF
:1017000020F029C021F024961200C6BA8AEF0BF00F
:101710008CEF0BF094EF0BF0000EC76E080EC66E48
:10172000000EC56EC868C68A12009BEF0BF0CDECA8
:101730000BF065EC0AF024B2A0EF0BF0A2EF0BF077
:1017400097EF0BF012002BC026F02CC027F02DC015
:1017500028F02EC029F0000EF3EC09F0120000EE84
:1017600001F0250EEE6AE806FDE1000EF86E0001BC
:1017700011EF08F0C5BCBFEF0BF0C2EF0BF0010E8C
:10178000C3EF0BF0000E1200600ED36E000ED26E8F
:10179000000E9B6E000E9A6E12009EA6D2EF0BF00A
:1017A000D4EF0BF0CDEF0BF0120060EC0BF0C4ECBB
:1017B0000BF0D4EC0AF0120024801D501D2424EC00
:1017C0000CF0030E12002480D8801D3424EC0CF0A1
:1017D000050E120026C045F027C046F0120026C0B4
:1017E00047F027C048F0120026C043F027C044F05D
:1017F00012002492000E236E0E0E1200249032EC82
:101800000CF0040E12002492000E236E0E0E120035
:101810002BEC0CF0090E12002BEC0CF00A0E12004F
:1018200028EC0CF0050E120038EC0CF0000E120043
:101830003AEC0CF0010E12003AEC0CF0020E120021
:101840003AEC0CF0010E1200266E26C0C9FF120001
:10185000C59AC5881200C58AC58812009E861200E6
:10186000C9501200C5861200050E1200010E1200AA
:10187000C5841200C5821200C58012009D96120018
:08188000C69A12009E961200A8
:020000040020DA
:08000000FFFFFFFFFFFFFFFF00
:020000040030CA
:0E00000015027F7CFF8991FF0FC00FE00F40BB
:00000001FF
